{
  "_format": "hh-sol-artifact-1",
  "contractName": "Composable",
  "sourceName": "contracts/Composable.sol",
  "abi": [
    {
      "inputs": [],
      "stateMutability": "nonpayable",
      "type": "constructor"
    },
    {
      "anonymous": false,
      "inputs": [
        {
          "indexed": true,
          "internalType": "address",
          "name": "owner",
          "type": "address"
        },
        {
          "indexed": true,
          "internalType": "address",
          "name": "approved",
          "type": "address"
        },
        {
          "indexed": true,
          "internalType": "uint256",
          "name": "tokenId",
          "type": "uint256"
        }
      ],
      "name": "Approval",
      "type": "event"
    },
    {
      "anonymous": false,
      "inputs": [
        {
          "indexed": true,
          "internalType": "address",
          "name": "owner",
          "type": "address"
        },
        {
          "indexed": true,
          "internalType": "address",
          "name": "operator",
          "type": "address"
        },
        {
          "indexed": false,
          "internalType": "bool",
          "name": "approved",
          "type": "bool"
        }
      ],
      "name": "ApprovalForAll",
      "type": "event"
    },
    {
      "anonymous": false,
      "inputs": [
        {
          "indexed": false,
          "internalType": "address",
          "name": "_seller",
          "type": "address"
        },
        {
          "indexed": false,
          "internalType": "address",
          "name": "_buyer",
          "type": "address"
        },
        {
          "indexed": false,
          "internalType": "uint256",
          "name": "_price",
          "type": "uint256"
        }
      ],
      "name": "MusicBought",
      "type": "event"
    },
    {
      "anonymous": false,
      "inputs": [
        {
          "indexed": false,
          "internalType": "address",
          "name": "sender",
          "type": "address"
        },
        {
          "indexed": false,
          "internalType": "uint256",
          "name": "tokenId",
          "type": "uint256"
        }
      ],
      "name": "NewMusic",
      "type": "event"
    },
    {
      "anonymous": false,
      "inputs": [
        {
          "indexed": false,
          "internalType": "address",
          "name": "sender",
          "type": "address"
        },
        {
          "indexed": false,
          "internalType": "uint256",
          "name": "tokenId",
          "type": "uint256"
        },
        {
          "indexed": false,
          "internalType": "string",
          "name": "name",
          "type": "string"
        }
      ],
      "name": "NewSample",
      "type": "event"
    },
    {
      "anonymous": false,
      "inputs": [
        {
          "indexed": true,
          "internalType": "address",
          "name": "previousOwner",
          "type": "address"
        },
        {
          "indexed": true,
          "internalType": "address",
          "name": "newOwner",
          "type": "address"
        }
      ],
      "name": "OwnershipTransferred",
      "type": "event"
    },
    {
      "anonymous": false,
      "inputs": [
        {
          "indexed": true,
          "internalType": "address",
          "name": "from",
          "type": "address"
        },
        {
          "indexed": true,
          "internalType": "address",
          "name": "to",
          "type": "address"
        },
        {
          "indexed": true,
          "internalType": "uint256",
          "name": "tokenId",
          "type": "uint256"
        }
      ],
      "name": "Transfer",
      "type": "event"
    },
    {
      "inputs": [],
      "name": "algorithmOwner",
      "outputs": [
        {
          "internalType": "address",
          "name": "",
          "type": "address"
        }
      ],
      "stateMutability": "view",
      "type": "function"
    },
    {
      "inputs": [
        {
          "internalType": "address",
          "name": "to",
          "type": "address"
        },
        {
          "internalType": "uint256",
          "name": "tokenId",
          "type": "uint256"
        }
      ],
      "name": "approve",
      "outputs": [],
      "stateMutability": "nonpayable",
      "type": "function"
    },
    {
      "inputs": [
        {
          "internalType": "address",
          "name": "owner",
          "type": "address"
        }
      ],
      "name": "balanceOf",
      "outputs": [
        {
          "internalType": "uint256",
          "name": "",
          "type": "uint256"
        }
      ],
      "stateMutability": "view",
      "type": "function"
    },
    {
      "inputs": [
        {
          "internalType": "address",
          "name": "to",
          "type": "address"
        },
        {
          "internalType": "uint256",
          "name": "value",
          "type": "uint256"
        },
        {
          "internalType": "string",
          "name": "nameSample",
          "type": "string"
        }
      ],
      "name": "generateNFTArtist",
      "outputs": [],
      "stateMutability": "payable",
      "type": "function"
    },
    {
      "inputs": [
        {
          "internalType": "address",
          "name": "to",
          "type": "address"
        },
        {
          "internalType": "uint256[]",
          "name": "samplesA",
          "type": "uint256[]"
        }
      ],
      "name": "generateNFTMusic",
      "outputs": [],
      "stateMutability": "payable",
      "type": "function"
    },
    {
      "inputs": [
        {
          "internalType": "uint256",
          "name": "tokenId",
          "type": "uint256"
        }
      ],
      "name": "getApproved",
      "outputs": [
        {
          "internalType": "address",
          "name": "",
          "type": "address"
        }
      ],
      "stateMutability": "view",
      "type": "function"
    },
    {
      "inputs": [],
      "name": "getMusicas",
      "outputs": [
        {
          "internalType": "uint256[]",
          "name": "",
          "type": "uint256[]"
        }
      ],
      "stateMutability": "view",
      "type": "function"
    },
    {
      "inputs": [
        {
          "internalType": "address",
          "name": "owner",
          "type": "address"
        },
        {
          "internalType": "address",
          "name": "operator",
          "type": "address"
        }
      ],
      "name": "isApprovedForAll",
      "outputs": [
        {
          "internalType": "bool",
          "name": "",
          "type": "bool"
        }
      ],
      "stateMutability": "view",
      "type": "function"
    },
    {
      "inputs": [],
      "name": "name",
      "outputs": [
        {
          "internalType": "string",
          "name": "",
          "type": "string"
        }
      ],
      "stateMutability": "view",
      "type": "function"
    },
    {
      "inputs": [
        {
          "internalType": "uint256",
          "name": "",
          "type": "uint256"
        }
      ],
      "name": "nfts",
      "outputs": [
        {
          "internalType": "uint256",
          "name": "idToken",
          "type": "uint256"
        },
        {
          "internalType": "address",
          "name": "walletOwner",
          "type": "address"
        },
        {
          "internalType": "uint256",
          "name": "valueSample",
          "type": "uint256"
        }
      ],
      "stateMutability": "view",
      "type": "function"
    },
    {
      "inputs": [],
      "name": "owner",
      "outputs": [
        {
          "internalType": "address",
          "name": "",
          "type": "address"
        }
      ],
      "stateMutability": "view",
      "type": "function"
    },
    {
      "inputs": [
        {
          "internalType": "uint256",
          "name": "tokenId",
          "type": "uint256"
        }
      ],
      "name": "ownerOf",
      "outputs": [
        {
          "internalType": "address",
          "name": "",
          "type": "address"
        }
      ],
      "stateMutability": "view",
      "type": "function"
    },
    {
      "inputs": [],
      "name": "renounceOwnership",
      "outputs": [],
      "stateMutability": "nonpayable",
      "type": "function"
    },
    {
      "inputs": [
        {
          "internalType": "address",
          "name": "from",
          "type": "address"
        },
        {
          "internalType": "address",
          "name": "to",
          "type": "address"
        },
        {
          "internalType": "uint256",
          "name": "tokenId",
          "type": "uint256"
        }
      ],
      "name": "safeTransferFrom",
      "outputs": [],
      "stateMutability": "nonpayable",
      "type": "function"
    },
    {
      "inputs": [
        {
          "internalType": "address",
          "name": "from",
          "type": "address"
        },
        {
          "internalType": "address",
          "name": "to",
          "type": "address"
        },
        {
          "internalType": "uint256",
          "name": "tokenId",
          "type": "uint256"
        },
        {
          "internalType": "bytes",
          "name": "data",
          "type": "bytes"
        }
      ],
      "name": "safeTransferFrom",
      "outputs": [],
      "stateMutability": "nonpayable",
      "type": "function"
    },
    {
      "inputs": [
        {
          "internalType": "address",
          "name": "operator",
          "type": "address"
        },
        {
          "internalType": "bool",
          "name": "approved",
          "type": "bool"
        }
      ],
      "name": "setApprovalForAll",
      "outputs": [],
      "stateMutability": "nonpayable",
      "type": "function"
    },
    {
      "inputs": [
        {
          "internalType": "uint256",
          "name": "_taxArtist",
          "type": "uint256"
        }
      ],
      "name": "setTaxArtist",
      "outputs": [],
      "stateMutability": "nonpayable",
      "type": "function"
    },
    {
      "inputs": [
        {
          "internalType": "bytes4",
          "name": "interfaceId",
          "type": "bytes4"
        }
      ],
      "name": "supportsInterface",
      "outputs": [
        {
          "internalType": "bool",
          "name": "",
          "type": "bool"
        }
      ],
      "stateMutability": "view",
      "type": "function"
    },
    {
      "inputs": [],
      "name": "symbol",
      "outputs": [
        {
          "internalType": "string",
          "name": "",
          "type": "string"
        }
      ],
      "stateMutability": "view",
      "type": "function"
    },
    {
      "inputs": [
        {
          "internalType": "uint256",
          "name": "tokenId",
          "type": "uint256"
        }
      ],
      "name": "tokenURI",
      "outputs": [
        {
          "internalType": "string",
          "name": "",
          "type": "string"
        }
      ],
      "stateMutability": "view",
      "type": "function"
    },
    {
      "inputs": [],
      "name": "totalContent",
      "outputs": [
        {
          "internalType": "uint256",
          "name": "",
          "type": "uint256"
        }
      ],
      "stateMutability": "view",
      "type": "function"
    },
    {
      "inputs": [
        {
          "internalType": "address",
          "name": "from",
          "type": "address"
        },
        {
          "internalType": "address",
          "name": "to",
          "type": "address"
        },
        {
          "internalType": "uint256",
          "name": "tokenId",
          "type": "uint256"
        }
      ],
      "name": "transferFrom",
      "outputs": [],
      "stateMutability": "nonpayable",
      "type": "function"
    },
    {
      "inputs": [
        {
          "internalType": "address",
          "name": "newOwner",
          "type": "address"
        }
      ],
      "name": "transferOwnership",
      "outputs": [],
      "stateMutability": "nonpayable",
      "type": "function"
    }
  ],
  "bytecode": "0x60806040526611c37937e08000600a553480156200001c57600080fd5b506040518060400160405280601881526020017f436f6d706f7361626c65204d757369632053616d706c657300000000000000008152506040518060400160405280600281526020017f434d000000000000000000000000000000000000000000000000000000000000815250620000a96200009d620000dd60201b60201c565b620000e560201b60201c565b8160019081620000ba919062000423565b508060029081620000cc919062000423565b50505060016007819055506200050a565b600033905090565b60008060009054906101000a900473ffffffffffffffffffffffffffffffffffffffff169050816000806101000a81548173ffffffffffffffffffffffffffffffffffffffff021916908373ffffffffffffffffffffffffffffffffffffffff1602179055508173ffffffffffffffffffffffffffffffffffffffff168173ffffffffffffffffffffffffffffffffffffffff167f8be0079c531659141344cd1fd0a4f28419497f9722a3daafe3b4186f6b6457e060405160405180910390a35050565b600081519050919050565b7f4e487b7100000000000000000000000000000000000000000000000000000000600052604160045260246000fd5b7f4e487b7100000000000000000000000000000000000000000000000000000000600052602260045260246000fd5b600060028204905060018216806200022b57607f821691505b602082108103620002415762000240620001e3565b5b50919050565b60008190508160005260206000209050919050565b60006020601f8301049050919050565b600082821b905092915050565b600060088302620002ab7fffffffffffffffffffffffffffffffffffffffffffffffffffffffffffffffff826200026c565b620002b786836200026c565b95508019841693508086168417925050509392505050565b6000819050919050565b6000819050919050565b600062000304620002fe620002f884620002cf565b620002d9565b620002cf565b9050919050565b6000819050919050565b6200032083620002e3565b620003386200032f826200030b565b84845462000279565b825550505050565b600090565b6200034f62000340565b6200035c81848462000315565b505050565b5b8181101562000384576200037860008262000345565b60018101905062000362565b5050565b601f821115620003d3576200039d8162000247565b620003a8846200025c565b81016020851015620003b8578190505b620003d0620003c7856200025c565b83018262000361565b50505b505050565b600082821c905092915050565b6000620003f860001984600802620003d8565b1980831691505092915050565b6000620004138383620003e5565b9150826002028217905092915050565b6200042e82620001a9565b67ffffffffffffffff8111156200044a5762000449620001b4565b5b62000456825462000212565b6200046382828562000388565b600060209050601f8311600181146200049b576000841562000486578287015190505b62000492858262000405565b86555062000502565b601f198416620004ab8662000247565b60005b82811015620004d557848901518255600182019150602085019450602081019050620004ae565b86831015620004f55784890151620004f1601f891682620003e5565b8355505b6001600288020188555050505b505050505050565b613856806200051a6000396000f3fe6080604052600436106101405760003560e01c806366df9c64116100b6578063a22cb4651161006f578063a22cb46514610451578063b88d4fde1461047a578063c87b56dd146104a3578063d5ab0d60146104e0578063e985e9c5146104fc578063f2fde38b1461053957610140565b806366df9c641461036257806370a082311461038b578063715018a6146103c85780638da5cb5b146103df57806395d89b411461040a578063991562721461043557610140565b8063265aa62111610108578063265aa6211461023c5780632c59d1631461027b5780633cf29cc6146102a65780634010d27c146102d157806342842e0e146102fc5780636352211e1461032557610140565b806301ffc9a71461014557806306fdde0314610182578063081812fc146101ad578063095ea7b3146101ea57806323b872dd14610213575b600080fd5b34801561015157600080fd5b5061016c60048036038101906101679190612416565b610562565b604051610179919061245e565b60405180910390f35b34801561018e57600080fd5b50610197610644565b6040516101a49190612509565b60405180910390f35b3480156101b957600080fd5b506101d460048036038101906101cf9190612561565b6106d6565b6040516101e191906125cf565b60405180910390f35b3480156101f657600080fd5b50610211600480360381019061020c9190612616565b61071c565b005b34801561021f57600080fd5b5061023a60048036038101906102359190612656565b610833565b005b34801561024857600080fd5b50610263600480360381019061025e9190612561565b610893565b604051610272939291906126b8565b60405180910390f35b34801561028757600080fd5b506102906108dd565b60405161029d91906126ef565b60405180910390f35b3480156102b257600080fd5b506102bb6108ee565b6040516102c891906125cf565b60405180910390f35b3480156102dd57600080fd5b506102e6610914565b6040516102f391906127c8565b60405180910390f35b34801561030857600080fd5b50610323600480360381019061031e9190612656565b61096e565b005b34801561033157600080fd5b5061034c60048036038101906103479190612561565b61098e565b60405161035991906125cf565b60405180910390f35b34801561036e57600080fd5b5061038960048036038101906103849190612561565b610a14565b005b34801561039757600080fd5b506103b260048036038101906103ad91906127ea565b610a26565b6040516103bf91906126ef565b60405180910390f35b3480156103d457600080fd5b506103dd610add565b005b3480156103eb57600080fd5b506103f4610af1565b60405161040191906125cf565b60405180910390f35b34801561041657600080fd5b5061041f610b1a565b60405161042c9190612509565b60405180910390f35b61044f600480360381019061044a919061295f565b610bac565b005b34801561045d57600080fd5b50610478600480360381019061047391906129e7565b610edd565b005b34801561048657600080fd5b506104a1600480360381019061049c9190612adc565b610ef3565b005b3480156104af57600080fd5b506104ca60048036038101906104c59190612561565b610f55565b6040516104d79190612509565b60405180910390f35b6104fa60048036038101906104f59190612bba565b610ffc565b005b34801561050857600080fd5b50610523600480360381019061051e9190612c2e565b611197565b604051610530919061245e565b60405180910390f35b34801561054557600080fd5b50610560600480360381019061055b91906127ea565b61122b565b005b60007f80ac58cd000000000000000000000000000000000000000000000000000000007bffffffffffffffffffffffffffffffffffffffffffffffffffffffff1916827bffffffffffffffffffffffffffffffffffffffffffffffffffffffff1916148061062d57507f5b5e139f000000000000000000000000000000000000000000000000000000007bffffffffffffffffffffffffffffffffffffffffffffffffffffffff1916827bffffffffffffffffffffffffffffffffffffffffffffffffffffffff1916145b8061063d575061063c826112ae565b5b9050919050565b60606001805461065390612c9d565b80601f016020809104026020016040519081016040528092919081815260200182805461067f90612c9d565b80156106cc5780601f106106a1576101008083540402835291602001916106cc565b820191906000526020600020905b8154815290600101906020018083116106af57829003601f168201915b5050505050905090565b60006106e182611318565b6005600083815260200190815260200160002060009054906101000a900473ffffffffffffffffffffffffffffffffffffffff169050919050565b60006107278261098e565b90508073ffffffffffffffffffffffffffffffffffffffff168373ffffffffffffffffffffffffffffffffffffffff1603610797576040517f08c379a000000000000000000000000000000000000000000000000000000000815260040161078e90612d40565b60405180910390fd5b8073ffffffffffffffffffffffffffffffffffffffff166107b6611363565b73ffffffffffffffffffffffffffffffffffffffff1614806107e557506107e4816107df611363565b611197565b5b610824576040517f08c379a000000000000000000000000000000000000000000000000000000000815260040161081b90612dd2565b60405180910390fd5b61082e838361136b565b505050565b61084461083e611363565b82611424565b610883576040517f08c379a000000000000000000000000000000000000000000000000000000000815260040161087a90612e64565b60405180910390fd5b61088e8383836114b9565b505050565b60096020528060005260406000206000915090508060000154908060010160009054906101000a900473ffffffffffffffffffffffffffffffffffffffff16908060020154905083565b60006108e960086117b2565b905090565b600b60009054906101000a900473ffffffffffffffffffffffffffffffffffffffff1681565b60608060005b61092460086117b2565b81101561096657600960008281526020019081526020016000206000015482828151811061095557610954612e84565b5b60200260200101818152505061091a565b819250505090565b61098983838360405180602001604052806000815250610ef3565b505050565b60008061099a836117c0565b9050600073ffffffffffffffffffffffffffffffffffffffff168173ffffffffffffffffffffffffffffffffffffffff1603610a0b576040517f08c379a0000000000000000000000000000000000000000000000000000000008152600401610a0290612eff565b60405180910390fd5b80915050919050565b610a1c6117fd565b80600a8190555050565b60008073ffffffffffffffffffffffffffffffffffffffff168273ffffffffffffffffffffffffffffffffffffffff1603610a96576040517f08c379a0000000000000000000000000000000000000000000000000000000008152600401610a8d90612f91565b60405180910390fd5b600460008373ffffffffffffffffffffffffffffffffffffffff1673ffffffffffffffffffffffffffffffffffffffff168152602001908152602001600020549050919050565b610ae56117fd565b610aef600061187b565b565b60008060009054906101000a900473ffffffffffffffffffffffffffffffffffffffff16905090565b606060028054610b2990612c9d565b80601f0160208091040260200160405190810160405280929190818152602001828054610b5590612c9d565b8015610ba25780601f10610b7757610100808354040283529160200191610ba2565b820191906000526020600020905b815481529060010190602001808311610b8557829003601f168201915b5050505050905090565b600a54341015610bf1576040517f08c379a0000000000000000000000000000000000000000000000000000000008152600401610be890613023565b60405180910390fd5b6000610bfd60086117b2565b9050610c07612302565b60005b610c1460086117b2565b811015610c4f57600960008281526020019081526020016000206002015482604001818151610c439190613072565b91508181525050610c0a565b84826020019073ffffffffffffffffffffffffffffffffffffffff16908173ffffffffffffffffffffffffffffffffffffffff168152505082826000018181525050838260600181905250610ca4858461193f565b610cae600861195d565b81600960008581526020019081526020016000206000820151816000015560208201518160010160006101000a81548173ffffffffffffffffffffffffffffffffffffffff021916908373ffffffffffffffffffffffffffffffffffffffff160217905550604082015181600201556060820151816003019080519060200190610d39929190612340565b509050506000805b8551811015610d9b5760096000878381518110610d6157610d60612e84565b5b602002602001015181526020019081526020016000206002015482610d869190613072565b91508080610d93906130a6565b915050610d41565b5080341015610ddf576040517f08c379a0000000000000000000000000000000000000000000000000000000008152600401610dd69061313a565b60405180910390fd5b60005b8551811015610e9b57600060096000888481518110610e0457610e03612e84565b5b6020026020010151815260200190815260200160002060010160009054906101000a900473ffffffffffffffffffffffffffffffffffffffff1690508073ffffffffffffffffffffffffffffffffffffffff166108fc349081150290604051600060405180830381858888f19350505050158015610e86573d6000803e3d6000fd5b50508080610e93906130a6565b915050610de2565b507fa8f7280fa625c470fd1f87e80f4e7d941aa0dfce1e11ae9be75ad9b7d8324a138685604051610ecd92919061315a565b60405180910390a1505050505050565b610eef610ee8611363565b8383611973565b5050565b610f04610efe611363565b83611424565b610f43576040517f08c379a0000000000000000000000000000000000000000000000000000000008152600401610f3a90612e64565b60405180910390fd5b610f4f84848484611adf565b50505050565b6060610f6082611b3b565b610f9f576040517f08c379a0000000000000000000000000000000000000000000000000000000008152600401610f96906131f5565b60405180910390fd5b6000610fa9611b7c565b90506000815111610fc95760405180602001604052806000815250610ff4565b80610fd384611b93565b604051602001610fe4929190613251565b6040516020818303038152906040525b915050919050565b600a54341015611041576040517f08c379a000000000000000000000000000000000000000000000000000000000815260040161103890613023565b60405180910390fd5b600061104d60086117b2565b9050611057612302565b60608582604001818152505086826020019073ffffffffffffffffffffffffffffffffffffffff16908173ffffffffffffffffffffffffffffffffffffffff1681525050828260000181815250508082606001819052506110b8878461193f565b81600960008581526020019081526020016000206000820151816000015560208201518160010160006101000a81548173ffffffffffffffffffffffffffffffffffffffff021916908373ffffffffffffffffffffffffffffffffffffffff160217905550604082015181600201556060820151816003019080519060200190611143929190612340565b50905050611151600861195d565b7f972ce17950057f23d7f1d2c8fa97f6f51e02ad9879cb31e67883ffb7dbb8f3628784878760405161118694939291906132a2565b60405180910390a150505050505050565b6000600660008473ffffffffffffffffffffffffffffffffffffffff1673ffffffffffffffffffffffffffffffffffffffff16815260200190815260200160002060008373ffffffffffffffffffffffffffffffffffffffff1673ffffffffffffffffffffffffffffffffffffffff16815260200190815260200160002060009054906101000a900460ff16905092915050565b6112336117fd565b600073ffffffffffffffffffffffffffffffffffffffff168173ffffffffffffffffffffffffffffffffffffffff16036112a2576040517f08c379a000000000000000000000000000000000000000000000000000000000815260040161129990613354565b60405180910390fd5b6112ab8161187b565b50565b60007f01ffc9a7000000000000000000000000000000000000000000000000000000007bffffffffffffffffffffffffffffffffffffffffffffffffffffffff1916827bffffffffffffffffffffffffffffffffffffffffffffffffffffffff1916149050919050565b61132181611b3b565b611360576040517f08c379a000000000000000000000000000000000000000000000000000000000815260040161135790612eff565b60405180910390fd5b50565b600033905090565b816005600083815260200190815260200160002060006101000a81548173ffffffffffffffffffffffffffffffffffffffff021916908373ffffffffffffffffffffffffffffffffffffffff160217905550808273ffffffffffffffffffffffffffffffffffffffff166113de8361098e565b73ffffffffffffffffffffffffffffffffffffffff167f8c5be1e5ebec7d5bd14f71427d1e84f3dd0314c0f7b2291e5b200ac8c7c3b92560405160405180910390a45050565b6000806114308361098e565b90508073ffffffffffffffffffffffffffffffffffffffff168473ffffffffffffffffffffffffffffffffffffffff16148061147257506114718185611197565b5b806114b057508373ffffffffffffffffffffffffffffffffffffffff16611498846106d6565b73ffffffffffffffffffffffffffffffffffffffff16145b91505092915050565b8273ffffffffffffffffffffffffffffffffffffffff166114d98261098e565b73ffffffffffffffffffffffffffffffffffffffff161461152f576040517f08c379a0000000000000000000000000000000000000000000000000000000008152600401611526906133e6565b60405180910390fd5b600073ffffffffffffffffffffffffffffffffffffffff168273ffffffffffffffffffffffffffffffffffffffff160361159e576040517f08c379a000000000000000000000000000000000000000000000000000000000815260040161159590613478565b60405180910390fd5b6115ab8383836001611c61565b8273ffffffffffffffffffffffffffffffffffffffff166115cb8261098e565b73ffffffffffffffffffffffffffffffffffffffff1614611621576040517f08c379a0000000000000000000000000000000000000000000000000000000008152600401611618906133e6565b60405180910390fd5b6005600082815260200190815260200160002060006101000a81549073ffffffffffffffffffffffffffffffffffffffff02191690556001600460008573ffffffffffffffffffffffffffffffffffffffff1673ffffffffffffffffffffffffffffffffffffffff168152602001908152602001600020600082825403925050819055506001600460008473ffffffffffffffffffffffffffffffffffffffff1673ffffffffffffffffffffffffffffffffffffffff16815260200190815260200160002060008282540192505081905550816003600083815260200190815260200160002060006101000a81548173ffffffffffffffffffffffffffffffffffffffff021916908373ffffffffffffffffffffffffffffffffffffffff160217905550808273ffffffffffffffffffffffffffffffffffffffff168473ffffffffffffffffffffffffffffffffffffffff167fddf252ad1be2c89b69c2b068fc378daa952ba7f163c4a11628f55a4df523b3ef60405160405180910390a46117ad8383836001611d87565b505050565b600081600001549050919050565b60006003600083815260200190815260200160002060009054906101000a900473ffffffffffffffffffffffffffffffffffffffff169050919050565b611805611363565b73ffffffffffffffffffffffffffffffffffffffff16611823610af1565b73ffffffffffffffffffffffffffffffffffffffff1614611879576040517f08c379a0000000000000000000000000000000000000000000000000000000008152600401611870906134e4565b60405180910390fd5b565b60008060009054906101000a900473ffffffffffffffffffffffffffffffffffffffff169050816000806101000a81548173ffffffffffffffffffffffffffffffffffffffff021916908373ffffffffffffffffffffffffffffffffffffffff1602179055508173ffffffffffffffffffffffffffffffffffffffff168173ffffffffffffffffffffffffffffffffffffffff167f8be0079c531659141344cd1fd0a4f28419497f9722a3daafe3b4186f6b6457e060405160405180910390a35050565b611959828260405180602001604052806000815250611d8d565b5050565b6001816000016000828254019250508190555050565b8173ffffffffffffffffffffffffffffffffffffffff168373ffffffffffffffffffffffffffffffffffffffff16036119e1576040517f08c379a00000000000000000000000000000000000000000000000000000000081526004016119d890613550565b60405180910390fd5b80600660008573ffffffffffffffffffffffffffffffffffffffff1673ffffffffffffffffffffffffffffffffffffffff16815260200190815260200160002060008473ffffffffffffffffffffffffffffffffffffffff1673ffffffffffffffffffffffffffffffffffffffff16815260200190815260200160002060006101000a81548160ff0219169083151502179055508173ffffffffffffffffffffffffffffffffffffffff168373ffffffffffffffffffffffffffffffffffffffff167f17307eab39ab6107e8899845ad3d59bd9653f200f220920489ca2b5937696c3183604051611ad2919061245e565b60405180910390a3505050565b611aea8484846114b9565b611af684848484611de8565b611b35576040517f08c379a0000000000000000000000000000000000000000000000000000000008152600401611b2c906135e2565b60405180910390fd5b50505050565b60008073ffffffffffffffffffffffffffffffffffffffff16611b5d836117c0565b73ffffffffffffffffffffffffffffffffffffffff1614159050919050565b606060405180602001604052806000815250905090565b606060006001611ba284611f6f565b01905060008167ffffffffffffffff811115611bc157611bc061281c565b5b6040519080825280601f01601f191660200182016040528015611bf35781602001600182028036833780820191505090505b509050600082602001820190505b600115611c56578080600190039150507f3031323334353637383961626364656600000000000000000000000000000000600a86061a8153600a8581611c4a57611c49613602565b5b04945060008503611c01575b819350505050919050565b6001811115611d8157600073ffffffffffffffffffffffffffffffffffffffff168473ffffffffffffffffffffffffffffffffffffffff1614611cf55780600460008673ffffffffffffffffffffffffffffffffffffffff1673ffffffffffffffffffffffffffffffffffffffff1681526020019081526020016000206000828254611ced9190613631565b925050819055505b600073ffffffffffffffffffffffffffffffffffffffff168373ffffffffffffffffffffffffffffffffffffffff1614611d805780600460008573ffffffffffffffffffffffffffffffffffffffff1673ffffffffffffffffffffffffffffffffffffffff1681526020019081526020016000206000828254611d789190613072565b925050819055505b5b50505050565b50505050565b611d9783836120c2565b611da46000848484611de8565b611de3576040517f08c379a0000000000000000000000000000000000000000000000000000000008152600401611dda906135e2565b60405180910390fd5b505050565b6000611e098473ffffffffffffffffffffffffffffffffffffffff166122df565b15611f62578373ffffffffffffffffffffffffffffffffffffffff1663150b7a02611e32611363565b8786866040518563ffffffff1660e01b8152600401611e5494939291906136ba565b6020604051808303816000875af1925050508015611e9057506040513d601f19601f82011682018060405250810190611e8d919061371b565b60015b611f12573d8060008114611ec0576040519150601f19603f3d011682016040523d82523d6000602084013e611ec5565b606091505b506000815103611f0a576040517f08c379a0000000000000000000000000000000000000000000000000000000008152600401611f01906135e2565b60405180910390fd5b805181602001fd5b63150b7a0260e01b7bffffffffffffffffffffffffffffffffffffffffffffffffffffffff1916817bffffffffffffffffffffffffffffffffffffffffffffffffffffffff191614915050611f67565b600190505b949350505050565b600080600090507a184f03e93ff9f4daa797ed6e38ed64bf6a1f0100000000000000008310611fcd577a184f03e93ff9f4daa797ed6e38ed64bf6a1f0100000000000000008381611fc357611fc2613602565b5b0492506040810190505b6d04ee2d6d415b85acef8100000000831061200a576d04ee2d6d415b85acef8100000000838161200057611fff613602565b5b0492506020810190505b662386f26fc10000831061203957662386f26fc10000838161202f5761202e613602565b5b0492506010810190505b6305f5e1008310612062576305f5e100838161205857612057613602565b5b0492506008810190505b612710831061208757612710838161207d5761207c613602565b5b0492506004810190505b606483106120aa57606483816120a05761209f613602565b5b0492506002810190505b600a83106120b9576001810190505b80915050919050565b600073ffffffffffffffffffffffffffffffffffffffff168273ffffffffffffffffffffffffffffffffffffffff1603612131576040517f08c379a000000000000000000000000000000000000000000000000000000000815260040161212890613794565b60405180910390fd5b61213a81611b3b565b1561217a576040517f08c379a000000000000000000000000000000000000000000000000000000000815260040161217190613800565b60405180910390fd5b612188600083836001611c61565b61219181611b3b565b156121d1576040517f08c379a00000000000000000000000000000000000000000000000000000000081526004016121c890613800565b60405180910390fd5b6001600460008473ffffffffffffffffffffffffffffffffffffffff1673ffffffffffffffffffffffffffffffffffffffff16815260200190815260200160002060008282540192505081905550816003600083815260200190815260200160002060006101000a81548173ffffffffffffffffffffffffffffffffffffffff021916908373ffffffffffffffffffffffffffffffffffffffff160217905550808273ffffffffffffffffffffffffffffffffffffffff16600073ffffffffffffffffffffffffffffffffffffffff167fddf252ad1be2c89b69c2b068fc378daa952ba7f163c4a11628f55a4df523b3ef60405160405180910390a46122db600083836001611d87565b5050565b6000808273ffffffffffffffffffffffffffffffffffffffff163b119050919050565b604051806080016040528060008152602001600073ffffffffffffffffffffffffffffffffffffffff16815260200160008152602001606081525090565b82805482825590600052602060002090810192821561237c579160200282015b8281111561237b578251825591602001919060010190612360565b5b509050612389919061238d565b5090565b5b808211156123a657600081600090555060010161238e565b5090565b6000604051905090565b600080fd5b600080fd5b60007fffffffff0000000000000000000000000000000000000000000000000000000082169050919050565b6123f3816123be565b81146123fe57600080fd5b50565b600081359050612410816123ea565b92915050565b60006020828403121561242c5761242b6123b4565b5b600061243a84828501612401565b91505092915050565b60008115159050919050565b61245881612443565b82525050565b6000602082019050612473600083018461244f565b92915050565b600081519050919050565b600082825260208201905092915050565b60005b838110156124b3578082015181840152602081019050612498565b60008484015250505050565b6000601f19601f8301169050919050565b60006124db82612479565b6124e58185612484565b93506124f5818560208601612495565b6124fe816124bf565b840191505092915050565b6000602082019050818103600083015261252381846124d0565b905092915050565b6000819050919050565b61253e8161252b565b811461254957600080fd5b50565b60008135905061255b81612535565b92915050565b600060208284031215612577576125766123b4565b5b60006125858482850161254c565b91505092915050565b600073ffffffffffffffffffffffffffffffffffffffff82169050919050565b60006125b98261258e565b9050919050565b6125c9816125ae565b82525050565b60006020820190506125e460008301846125c0565b92915050565b6125f3816125ae565b81146125fe57600080fd5b50565b600081359050612610816125ea565b92915050565b6000806040838503121561262d5761262c6123b4565b5b600061263b85828601612601565b925050602061264c8582860161254c565b9150509250929050565b60008060006060848603121561266f5761266e6123b4565b5b600061267d86828701612601565b935050602061268e86828701612601565b925050604061269f8682870161254c565b9150509250925092565b6126b28161252b565b82525050565b60006060820190506126cd60008301866126a9565b6126da60208301856125c0565b6126e760408301846126a9565b949350505050565b600060208201905061270460008301846126a9565b92915050565b600081519050919050565b600082825260208201905092915050565b6000819050602082019050919050565b61273f8161252b565b82525050565b60006127518383612736565b60208301905092915050565b6000602082019050919050565b60006127758261270a565b61277f8185612715565b935061278a83612726565b8060005b838110156127bb5781516127a28882612745565b97506127ad8361275d565b92505060018101905061278e565b5085935050505092915050565b600060208201905081810360008301526127e2818461276a565b905092915050565b600060208284031215612800576127ff6123b4565b5b600061280e84828501612601565b91505092915050565b600080fd5b7f4e487b7100000000000000000000000000000000000000000000000000000000600052604160045260246000fd5b612854826124bf565b810181811067ffffffffffffffff821117156128735761287261281c565b5b80604052505050565b60006128866123aa565b9050612892828261284b565b919050565b600067ffffffffffffffff8211156128b2576128b161281c565b5b602082029050602081019050919050565b600080fd5b60006128db6128d684612897565b61287c565b905080838252602082019050602084028301858111156128fe576128fd6128c3565b5b835b818110156129275780612913888261254c565b845260208401935050602081019050612900565b5050509392505050565b600082601f83011261294657612945612817565b5b81356129568482602086016128c8565b91505092915050565b60008060408385031215612976576129756123b4565b5b600061298485828601612601565b925050602083013567ffffffffffffffff8111156129a5576129a46123b9565b5b6129b185828601612931565b9150509250929050565b6129c481612443565b81146129cf57600080fd5b50565b6000813590506129e1816129bb565b92915050565b600080604083850312156129fe576129fd6123b4565b5b6000612a0c85828601612601565b9250506020612a1d858286016129d2565b9150509250929050565b600080fd5b600067ffffffffffffffff821115612a4757612a4661281c565b5b612a50826124bf565b9050602081019050919050565b82818337600083830152505050565b6000612a7f612a7a84612a2c565b61287c565b905082815260208101848484011115612a9b57612a9a612a27565b5b612aa6848285612a5d565b509392505050565b600082601f830112612ac357612ac2612817565b5b8135612ad3848260208601612a6c565b91505092915050565b60008060008060808587031215612af657612af56123b4565b5b6000612b0487828801612601565b9450506020612b1587828801612601565b9350506040612b268782880161254c565b925050606085013567ffffffffffffffff811115612b4757612b466123b9565b5b612b5387828801612aae565b91505092959194509250565b600080fd5b60008083601f840112612b7a57612b79612817565b5b8235905067ffffffffffffffff811115612b9757612b96612b5f565b5b602083019150836001820283011115612bb357612bb26128c3565b5b9250929050565b60008060008060608587031215612bd457612bd36123b4565b5b6000612be287828801612601565b9450506020612bf38782880161254c565b935050604085013567ffffffffffffffff811115612c1457612c136123b9565b5b612c2087828801612b64565b925092505092959194509250565b60008060408385031215612c4557612c446123b4565b5b6000612c5385828601612601565b9250506020612c6485828601612601565b9150509250929050565b7f4e487b7100000000000000000000000000000000000000000000000000000000600052602260045260246000fd5b60006002820490506001821680612cb557607f821691505b602082108103612cc857612cc7612c6e565b5b50919050565b7f4552433732313a20617070726f76616c20746f2063757272656e74206f776e6560008201527f7200000000000000000000000000000000000000000000000000000000000000602082015250565b6000612d2a602183612484565b9150612d3582612cce565b604082019050919050565b60006020820190508181036000830152612d5981612d1d565b9050919050565b7f4552433732313a20617070726f76652063616c6c6572206973206e6f7420746f60008201527f6b656e206f776e6572206f7220617070726f76656420666f7220616c6c000000602082015250565b6000612dbc603d83612484565b9150612dc782612d60565b604082019050919050565b60006020820190508181036000830152612deb81612daf565b9050919050565b7f4552433732313a2063616c6c6572206973206e6f7420746f6b656e206f776e6560008201527f72206f7220617070726f76656400000000000000000000000000000000000000602082015250565b6000612e4e602d83612484565b9150612e5982612df2565b604082019050919050565b60006020820190508181036000830152612e7d81612e41565b9050919050565b7f4e487b7100000000000000000000000000000000000000000000000000000000600052603260045260246000fd5b7f4552433732313a20696e76616c696420746f6b656e2049440000000000000000600082015250565b6000612ee9601883612484565b9150612ef482612eb3565b602082019050919050565b60006020820190508181036000830152612f1881612edc565b9050919050565b7f4552433732313a2061646472657373207a65726f206973206e6f74206120766160008201527f6c6964206f776e65720000000000000000000000000000000000000000000000602082015250565b6000612f7b602983612484565b9150612f8682612f1f565b604082019050919050565b60006020820190508181036000830152612faa81612f6e565b9050919050565b7f4e6f7420656e6f756768204554482073656e743b20636865636b20707269636560008201527f2100000000000000000000000000000000000000000000000000000000000000602082015250565b600061300d602183612484565b915061301882612fb1565b604082019050919050565b6000602082019050818103600083015261303c81613000565b9050919050565b7f4e487b7100000000000000000000000000000000000000000000000000000000600052601160045260246000fd5b600061307d8261252b565b91506130888361252b565b92508282019050808211156130a05761309f613043565b5b92915050565b60006130b18261252b565b91507fffffffffffffffffffffffffffffffffffffffffffffffffffffffffffffffff82036130e3576130e2613043565b5b600182019050919050565b7f4e6f7420656e6f7567682066756e647321000000000000000000000000000000600082015250565b6000613124601183612484565b915061312f826130ee565b602082019050919050565b6000602082019050818103600083015261315381613117565b9050919050565b600060408201905061316f60008301856125c0565b61317c60208301846126a9565b9392505050565b7f4552433732314d657461646174613a2055524920717565727920666f72206e6f60008201527f6e6578697374656e7420746f6b656e0000000000000000000000000000000000602082015250565b60006131df602f83612484565b91506131ea82613183565b604082019050919050565b6000602082019050818103600083015261320e816131d2565b9050919050565b600081905092915050565b600061322b82612479565b6132358185613215565b9350613245818560208601612495565b80840191505092915050565b600061325d8285613220565b91506132698284613220565b91508190509392505050565b60006132818385612484565b935061328e838584612a5d565b613297836124bf565b840190509392505050565b60006060820190506132b760008301876125c0565b6132c460208301866126a9565b81810360408301526132d7818486613275565b905095945050505050565b7f4f776e61626c653a206e6577206f776e657220697320746865207a65726f206160008201527f6464726573730000000000000000000000000000000000000000000000000000602082015250565b600061333e602683612484565b9150613349826132e2565b604082019050919050565b6000602082019050818103600083015261336d81613331565b9050919050565b7f4552433732313a207472616e736665722066726f6d20696e636f72726563742060008201527f6f776e6572000000000000000000000000000000000000000000000000000000602082015250565b60006133d0602583612484565b91506133db82613374565b604082019050919050565b600060208201905081810360008301526133ff816133c3565b9050919050565b7f4552433732313a207472616e7366657220746f20746865207a65726f2061646460008201527f7265737300000000000000000000000000000000000000000000000000000000602082015250565b6000613462602483612484565b915061346d82613406565b604082019050919050565b6000602082019050818103600083015261349181613455565b9050919050565b7f4f776e61626c653a2063616c6c6572206973206e6f7420746865206f776e6572600082015250565b60006134ce602083612484565b91506134d982613498565b602082019050919050565b600060208201905081810360008301526134fd816134c1565b9050919050565b7f4552433732313a20617070726f766520746f2063616c6c657200000000000000600082015250565b600061353a601983612484565b915061354582613504565b602082019050919050565b600060208201905081810360008301526135698161352d565b9050919050565b7f4552433732313a207472616e7366657220746f206e6f6e20455243373231526560008201527f63656976657220696d706c656d656e7465720000000000000000000000000000602082015250565b60006135cc603283612484565b91506135d782613570565b604082019050919050565b600060208201905081810360008301526135fb816135bf565b9050919050565b7f4e487b7100000000000000000000000000000000000000000000000000000000600052601260045260246000fd5b600061363c8261252b565b91506136478361252b565b925082820390508181111561365f5761365e613043565b5b92915050565b600081519050919050565b600082825260208201905092915050565b600061368c82613665565b6136968185613670565b93506136a6818560208601612495565b6136af816124bf565b840191505092915050565b60006080820190506136cf60008301876125c0565b6136dc60208301866125c0565b6136e960408301856126a9565b81810360608301526136fb8184613681565b905095945050505050565b600081519050613715816123ea565b92915050565b600060208284031215613731576137306123b4565b5b600061373f84828501613706565b91505092915050565b7f4552433732313a206d696e7420746f20746865207a65726f2061646472657373600082015250565b600061377e602083612484565b915061378982613748565b602082019050919050565b600060208201905081810360008301526137ad81613771565b9050919050565b7f4552433732313a20746f6b656e20616c7265616479206d696e74656400000000600082015250565b60006137ea601c83612484565b91506137f5826137b4565b602082019050919050565b60006020820190508181036000830152613819816137dd565b905091905056fea2646970667358221220998605914fd3a150a2d46a81e04f3f4c391f51bc3fa22b778d52dd5d88e70a7c64736f6c63430008110033",
  "linkReferences": {},
  "deployedLinkReferences": {}
}